:100000000C9483010C94A0010C94A0010C94A00109
:100010000C94A0010C94A0010C94A0010C94A001DC
:100020000C94A0010C94A0010C9476120C94321242
:100030000C9477130C94A0010C94A0010C94A001D3
:100040000C94A0010C94A0010C94A0010C94A001AC
:100050000C94A0010C9453130C94A0010C94A001D7
:100060000C94A0010C94A0010C94A0010C94A0018C
:100070000C94A0010C94A0010C94A0010C94A0017C
:100080000C94A0010C94A0010C94A0010C94A0016C
:100090000C94A0010C94A0010C94A0010C94A0015C
:1000A0000C94A0010C94A0010C94A00114001A005F
:1000B0000800150017001C0018000C0012001300A7
:1000C00004001600070009000A000B000D000E00D6
:1000D0000F0033001D001B00060019000500110071
:1000E0001000360037003800E000E200E100215245
:1000F00028002C002252A800AE002A001E021F0277
:100100002F023002340034022E0224002500260083
:10011000200221022602270223022D022D002100A7
:1001200022002300220224022F00300025020100B9
:1001300001001E001F0020000052010031003102AA
:100140000100010001002E0027002A0049004A009A
:100150004B000000160A04010000000052000000DD
:100160004C004D004E00000016010601000050003A
:1001700051004F00000000000000000008081901B5
:10018000000000000000000000520100010001001A
:10019000010001000100AA000100A90021782478D3
:1001A000237800003A003B003C003D003E003F0049
:1001B0002278267825780000400041004200430064
:1001C00044004500207828782778000000000000CF
:1001D00000000000000000000052010001000100CA
:1001E000010001000100010001000100050109807A
:1001F000A101850319012AB700150126B700950151
:1002000075108100C0050C0901A101850419012A9E
:10021000A002150126A002950175108100C00501FC
:100220000906A101050719E029E715002501950830
:10023000750181029501750881010507190029FFE3
:10024000150026FF0095067508810005081901298B
:10025000051500250195057501910295017503911C
:1002600001C009023B00020100A0FA0904000001DC
:100270000301010009211101000122440007058149
:100280000308000109040100010300000009211115
:100290000100012232000705820320000112010043
:1002A00002000000088F45E2140001010200011A5B
:1002B000034B00650065006200200046006F00727D
:1002C0000020004D006F006D00000034036E0065DB
:1002D000006E00640065007A006B006F006D0062C4
:1002E00000650074002F00730061006E00640069F7
:1002F00000700072006100740061006D0061000018
:1003000000040309040011241FBECFEFDAE0DEBFB2
:10031000CDBF11E0A0E0B1E0ECE4FDE202C0059049
:100320000D92A235B107D9F722E0A2E5B1E001C0F4
:100330001D92A830B207E1F70E949A130C9465163B
:100340000C940000482F209100029091C70157E0C3
:10035000291302C080E0089530E0529FF001539FBE
:10036000F00D1124E853FE4F8181681306C080818F
:10037000481303C085818111EECF2F5F3F4F277057
:10038000E7CFE8EDF0E080818E7F80831092E2007D
:100390001092DA001092E100A0EEB0E08C91816042
:1003A0008C9380818F77808319BCA7EDB0E08C910E
:1003B0008E7F8C9380818F7E80831092B001089510
:1003C0002091E4003091E50095E6A9012091EC0030
:1003D000822F817020FF06C08091E80080FF06C058
:1003E00080E008952091E80022FD1AC08091BD01AF
:1003F000882389F0853089F08091EB0085FD0FC05E
:100400002091E4003091E50042175307F9F2915032
:10041000E1F684E0089582E0089583E0089581E0A4
:1004200008958091BF0187FF13C08091E80082FF8B
:1004300006C08091E8008B778093E80004C080912B
:10044000BD018111F2CF08958091BD018823D9F3B8
:100450008091E80080FFF8CF8091E8008E77ECCFA4
:10046000982F9093E900242F762F50E0891731F0D0
:100470007091EC002091ED005091F00021FD07C03B
:100480009F5F973071F78093E90081E00895309184
:10049000EB003E7F3093EB003091ED003D7F3093D9
:1004A000ED003091EB0031603093EB007093EC0085
:1004B0002093ED005093F0002091EE0027FDE0CF57
:1004C00080E00895B0E0A0E0E8E6F2E00C94D915F1
:1004D000C8EDD0E088818F7E8883E7EDF0E08081F1
:1004E0008160808384E082BF81E08093B001888155
:1004F0008E7F888302EE10E0F80110821092DA00FD
:1005000081EEC82ED12CF601108288818F778883E6
:1005100088818068888388818F7D888319BC109248
:10052000BD011092BE011092BC011092BB0190EE71
:10053000E92EF12CF70180818B7F80838881816097
:10054000888342E060E080E00E943002F601808112
:100550008E7F8083F80180818160808380818860C4
:100560008083F70180818E7F80838881806188838A
:10057000CDB7DEB7E8E00C94F515FC018091C5011C
:100580009091C60186179707A0F06115710529F4AF
:100590009091E8009E779093E80090E061157105D6
:1005A00051F4911108C08091E80082FF34C080E0CE
:1005B0000895BC01F2CF8091BD018823C1F185303F
:1005C000C1F18091E80083FD30C08091E80082FD98
:1005D000EACF8091E80080FFE1CF8091F300209185
:1005E000F200382F6115710519F02830310558F0E7
:1005F00091E02830310509F090E02091E8002E7755
:100600002093E800CBCF81918093F1006150710974
:100610002F5F3F4FE7CF8091BD01882341F08530A8
:1006200041F08091E80083FFBECF81E0089582E031
:10063000089583E00895089508958091B201089582
:100640002FB7F8948091010290910202A0910302C9
:10065000B09104022FBF08959C01FC0132969FEFD8
:1006600080E04191461751F09F3F19F4411101C0BC
:10067000982F8F5F8630A9F79F3F09F40895290FBF
:10068000311D97FD3A95F90162830895A3E0B0E02A
:10069000ECE4F3E00C94DF152091AE013091AF0152
:1006A00028173907A1F09093AF018093AE01E09134
:1006B000AC01F091AD01309751F024E029839B8388
:1006C0008A830084F185E02DCE0101960995239659
:1006D000E2E00C94FB15A3E0B0E0E1E7F3E00C945A
:1006E000DF152091AA013091AB0128173907A1F03D
:1006F0009093AB018093AA01E091AC01F091AD0120
:10070000309751F023E029839B838A830084F1850D
:10071000E02DCE01019609952396E2E00C94FB159D
:10072000E091AC01F091AD01309729F00190F0819A
:10073000E02D0995089580E0089580E00895F894EB
:10074000E82FE295EF70F0E031A1282F2F7081E0C3
:1007500090E001C0880F2A95EAF7982F909593238F
:1007600091A392A1892B82A37894089590918B01F3
:1007700092FF10C041E0282F2471243009F040E09E
:1007800031E0282F2871283009F030E0431711F0AC
:100790002CE0822793FF10C041E0282F24712431E0
:1007A00009F040E031E0282F2871283109F030E0CD
:1007B000431711F02CE0822730918C0130FF10C0DC
:1007C00051E0282F2171213009F050E041E0282F1D
:1007D0002871283009F040E0541711F029E08227F1
:1007E00031FF10C041E0282F2171213109F040E094
:1007F00031E0282F2871283109F030E0431711F03B
:1008000029E0822794FD877E089582389105B9F109
:10081000B0F48133910509F47DC048F48932910523
:1008200009F46DC08A32910509F47BC008958533BF
:10083000910509F45FC08933910509F10895833E5C
:100840009105D9F138F4803E910529F1823E910558
:1008500079F10895863E9105D9F1873E910509F415
:100860003EC0843E910541F520918C0121FF24C0BA
:1008700080918B0184FD19C087EE90E0089520914E
:100880008B01237009F05AC020918C0123FF14C002
:1008900089E290E0089520918B0120FD38C03091CD
:1008A0008C0130FF09C024FF43C090E080E0089530
:1008B00020918B0122FDF7CF089520918B0122FD1D
:1008C0003AC030918C0130FD39C024FFF5CFEDCF17
:1008D00020918B0123FFF0CF24FDE7CFCDCF2091D6
:1008E0008B0123FD2EC030918C0131FFEECF84EEC1
:1008F00090E0089520918B0125FFDECFC9CF209194
:100900008B0125FD21C020918C0123FFD5CF89E3E8
:1009100090E0D2CF20918B0126FFCECF8AE290E0EB
:10092000089520918B0126FFC7CF81E390E00895C1
:1009300083EE90E0089582EE90E0089580EE90E0DE
:10094000089586EE90E0089585E390E00895972F4E
:100950007430B8F46A30A8F48430B0F470E02AE05F
:10096000929F600D711D1124FB0198E2899FE00D9B
:10097000F11D1124EE0FFF1FE455FF4F8591949157
:10098000089580E090E0089581E0FCCF1F93CF931D
:10099000DF930E940504EC01C11580E5D807F0F54E
:1009A000C11580E4D80708F09CC0C03ED10520F5F1
:1009B000CD3CD10508F082C0C83AD10578F4C53ADB
:1009C000D10508F073C0C130D10519F1209709F1A4
:1009D000C430D105F0F4D0E0C0E01BC0C33CD10569
:1009E000D0F7C85AD0E0CC0FDD1FC25FDE4F0990B0
:1009F000D881C02DD4640DC0C11580E2D80708F09D
:100A0000D1C0C11581E0D80708F05AC0C83ED10551
:100A100010F7CE01DF91CF911F910895C03682E586
:100A2000D80718F5C03482E5D80708F06BC0C0328B
:100A300082E5D80708F05FC0C11582E5D80708F441
:100A400097C02C2F2695269580E2289F900111248F
:100A50008C2F8370C1E0D0E002C0CC0FDD1F8A95DF
:100A6000E2F7C22BD32BDD68D4CFC03A82E5D8079A
:100A700060F4C03882E5D80708F459C0CF71D0E0DF
:100A8000DC2FCC27C46FD06AC4CFC03C82E5D80726
:100A900008F462C0C03E82E5D80708F09CCFDC2F86
:100AA000CC27CC27DF71C06FD06AB3CFC55AD0E056
:100AB000C55FDE4FC881D0E0D064ABCFD065A9CF91
:100AC0008D2F0E94B603182FCE0199270E9405048E
:100AD000C12FD0E0DC2FCC27CC27DF71C82BD92B3E
:100AE00098CFCE0199270E940504CC27DF70C82B30
:100AF000D92BD06A8ECFCF71D0E0DC2FCC27C16F3D
:100B0000D06A87CF2C2F26952695277080E2289FC4
:100B1000900111248C2F8370C1E0D0E002C0CC0F73
:100B2000DD1F8A95E2F7C22BD32BDC6872CF2C2F06
:100B300026952695277080E2289F900111248C2FFE
:100B40008370C1E0D0E002C0CC0FDD1F8A95E2F7D0
:100B5000C22BD32BDA685DCF8C2F8F710E94B60326
:100B6000C82FD0E0DC2FCC27CC27DF71D06251CF4B
:100B70008C2F8F710E94B60355E0D695C7955A9574
:100B8000E1F7CF70D0E0DC2FCC27282F30E084FFB6
:100B900005C044E0220F331F4A95E1F7C22BD32B47
:100BA000D06937CF8D2F8F710E94B603182FCE01D9
:100BB00099270E940504C12FD0E0DC2FCC27CC2739
:100BC000DF71C82BD92BD2CF8095909184019823C7
:100BD000909384010895809100029091C701981329
:100BE00001C008958F5F8770FACFB0E0A0E0EBEF0F
:100BF000F5E00C94D8157C010091890110918A01CF
:100C00008091870190918801082B192BCFE0D0E0CB
:100C1000CC24C394D12CBC2EC6010C2E02C0880F4C
:100C2000991F0A94E2F780239123892B49F4219795
:100C300090F7B12C8B2DCDB7DEB7E9E00C94F4150D
:100C4000B7018C2F0E94A7040E94C604019779F374
:100C5000F1CFCF93DF93EC010E94F505BE010E9416
:100C6000A7040E94C604DF91CF910895943078F5CF
:100C70008A3068F5E82FF0E08AE0989FE00DF11DDA
:100C800011249E2F977083E0F695E7958A95E1F7FA
:100C9000EE0FFF1FEE0FFF1FE25AFE4F50E040E045
:100CA00080E0219130E0092E02C0369527950A9404
:100CB000E2F721703327042E01C0220F0A94EAF7CD
:100CC000822B4F5F5F4F4430510559F7089580E004
:100CD0000895943098F58A3088F5E82FF0E08AE09E
:100CE000989FE00DF11D11248E2F877041E001C007
:100CF000440F8A95EAF783E0F695E7958A95E1F740
:100D0000EE0FFF1FEE0FFF1FE25AFE4F30E020E014
:100D100070E05191DF011197CB01022E02C0969530
:100D200087950A94E2F7817081958527842385272A
:100D30008C932F5F3F4F2430310559F708959093DE
:100D40008A0180938901089521E030E002C0220FDA
:100D5000331F8A95E2F72095309580918901909113
:100D60008A01822393230E949F060895909179011E
:100D70008095892380937901282F277069F489173A
:100D800059F090918C0192FF07C0869586958695C3
:100D90000E94A40610927901089521E030E002C07B
:100DA000220F331F8A95E2F78091890190918A0181
:100DB000822B932B0E949F06089590938801809325
:100DC00087010895FC0124812223C1F08081918153
:100DD0000E94290692959F70963091F058F4925F88
:100DE0009F70923058F4803F19F030F4883E30F410
:100DF00081E008959A5FF4CF843FD1F380E00895B5
:100E0000883EB0F3813FD1F7F3CFA6E0B0E0EBE04E
:100E1000F7E00C94DE1549835A8349815A8199235E
:100E2000A1F0222391F0CA010E94F505182F682F26
:100E300089819A810E94690669817A81812F0E9445
:100E4000A7042696E3E00C94FA15CA010E94360620
:100E5000182FF2CF0F931F93CF93DF938B01EA01EB
:100E60009091BD01943061F58093E9008FEF9091EE
:100E7000E800815095FD06C095ED9A95F1F70000C8
:100E80008111F5CF8091E80085FF1AC00E94E00132
:100E9000811111C08091E80085FD06C08091E800B5
:100EA0008E778093E800F2CFF80181918F018093D3
:100EB000F100219779F78091E8008E778093E80020
:100EC000DF91CF911F910F91089543E050E0BC0155
:100ED00082E00E942A070895CF93DF93EC0148E057
:100EE00050E0BC0181E00E942A0788E0FE01A3EBEC
:100EF000B1E001900D928A95E1F7DF91CF910895CD
:100F00002091840180917B01282B80917A01882394
:100F100081F0282B30E086E591E0FC014191CF0182
:100F200041113F5FF1E08C359F07B9F73111109205
:100F30007A012093540148E050E06CE771E084E5C9
:100F400091E00E945816892BA9F088E0E4E5F1E0D1
:100F5000ACE7B1E001900D928A95E1F7E091AC0128
:100F6000F091AD01309731F00280F381E02D84E5FE
:100F700091E009950895882321F00E94E4050E94DC
:100F800080070895882339F090918401982B9093DD
:100F900084010E9480070895882391F19CEF980FA7
:100FA000913A80F4E6E5F1E02CE531E09191891386
:100FB00003C0DF0111971C922E173F07B9F70E945B
:100FC0008007089590E2980F983050F4877091E070
:100FD00001C0990F8A95EAF7892F0E94E405EFCFA7
:100FE0009BE5980F933028F490E080E00E946B031B
:100FF0000895885A8B3120F490E080E00E944603E7
:101000000895CF93C82F8823B1F08CEF8C0F813ACD
:1010100000F5E6E5F1E08CE591E0DF012D91C217E6
:1010200061F08A179B07D1F76C2F84E591E00E944D
:101030002C030E948007CF9108952191C21303C011
:10104000DF0111971C928E179F07B9F70E94800746
:10105000EBCF80E28C0F883068F4C77021E030E07D
:1010600001C0220FCA95EAF780918401822B8093F8
:101070008401DFCFEBE5EC0FE33040F4F0E0E55F17
:10108000FE4F808190E00E946B03D5CFC85ACB31D0
:1010900090F6EC2FF0E0EE0FFF1FE25FFE4F808135
:1010A00091810E944603C7CF0F931F93CF93DF9385
:1010B000C62FD42F022FFC0185818823A9F06093CD
:1010C00007020E9420039093060280930502C770D6
:1010D00081E001C0880FCA95EAF70E94C207DF913C
:1010E000CF911F910F91089580910702681341C01D
:1010F00020910502309106024FB7F89480910102C9
:1011000090910202A0910302B09104024FBF821B92
:10111000930B883C910568F510E21D0F6D17B9F02F
:1011200080E2860F883040F4C77081E001C0880FEC
:10113000CA95EAF70E94BB07183048F481E09D2F5A
:10114000977001C0880F9A95EAF70E94C207802F16
:101150000E940108802F0E94CC07183008F0BFCFF2
:10116000D77081E001C0880FDA95EAF70E94BB07CB
:10117000B6CFC77081E001C0880FCA95EAF7F6CFF5
:1011800090918C0192FB222720F9281779F080FB9F
:1011900092F990938C0160918B0170918C0184E0A5
:1011A00090E00E94421682E00E94B60608951092D6
:1011B0008401E6E5F1E086E0DF011D928A95E9F71A
:1011C00090E080E00E946B0390E080E00E94460384
:1011D00010927B010E9480070895AAE2B0E0E3EF3D
:1011E000F8E00C94DE158FEB91E02091F100FC010A
:1011F0002193CF01F1E0873C9F07B9F78091C001AF
:10120000833009F470C0B8F4813009F447C08230EB
:1012100009F4B1C08091E80083FF7EC28091BF01D4
:101220009091C0019A3008F077C2E92FF0E0E959B7
:10123000F94E0C94C9158A3009F48CC08B3009F42E
:101240006FC0893039F78091BF01813219F78091E1
:10125000C3019091C4010297E8F68091E800877F6E
:101260008093E8008091E80082FF38C09091F300FD
:101270008091F200029731F48091F100813011F0F9
:10128000863021F48091F1008093B2018091E800D2
:101290008B778093E8000E941102BCCF8091BF0140
:1012A000813A09F0B7CF8091E800877F8093E8000A
:1012B0008091C3019091C401892B61F468E083EBB4
:1012C00091E070E00E94BD028091E8008B778093EE
:1012D000E800A0CF60E090E080E0F3CF8091BD0116
:1012E0008111C0CF97CF8091BF01813A09F092CF91
:1012F0008091C3019091C401892B09F08BCF80911B
:10130000E800877F8093E8008091E80080FFFCCFB1
:1013100080910A018093F1008091E8008E77B9CF27
:101320008091BF01813209F075CF8091C301909106
:10133000C401892B09F06ECF8091E800877F8093EC
:10134000E8000E9411028091C10180930A010E946D
:10135000D70860CF8091BF01813209F05BCF8091C7
:10136000E800877F8093E8000E9411028091C2010B
:101370008093B1014FCF8091BF01813A09F04ACFEC
:101380008091E800877F8093E8008091E80080FFEB
:10139000FCCF8091B101BECF803899F0823809F03E
:1013A000BBC18091C3018F70873008F0B5C18093B5
:1013B000E9008091EB0085FB882780F91092E90015
:1013C00006C08091BB019091BC0191118260909107
:1013D000E800977F9093E8008093F1001092F1006D
:1013E0008091E8008E7794C1882309F482C182300D
:1013F00009F092C18091C101811185C18091C30121
:101400008F702FEF280F263008F086C18093E900F7
:101410002091EB0020FF77C1933031F48091EB00F5
:1014200080628093EB006FC19091EB00906190938C
:10143000EB0021E030E001C0220F8A95EAF720930B
:10144000EA001092EA008091EB008860EACF8111F7
:1014500063C11091C1011F778091E3008078812BD7
:101460008093E3008091E800877F8093E8000E94EA
:1014700011028091E80080FFFCCF8091E30080683A
:101480008093E30082E0111183E08093BD0144C1A9
:101490008058823008F040C18091C1019091C20112
:1014A0008C3D23E09207A1F583E08A838AE2898359
:1014B0004FB7F894DE01139620E03EE051E2E32FAF
:1014C000F0E050935700E49120FF03C0E295EF70E5
:1014D0003F5FEF708E2F90E0EA30C0F0C7968D939B
:1014E0009D932F5F243159F74FBF8091E800877F8C
:1014F0008093E8006AE270E0CE0101960E94BD028E
:101500008091E8008B778093E80006C1C096E7CF12
:101510004091C3015091C401292F33272330310555
:1015200009F444C078F52130310509F46FC08BE32C
:1015300090E0E2E6F2E02230310509F0EDC02091C2
:10154000E800277F2093E8002091C5013091C60173
:101550008217930708F49C0140E02115310509F03A
:1015600064C0411162C08091E80082FDC9CF8091C2
:10157000BD01882329F2853019F28091E80083FFAC
:10158000F2CFBECF21323105A9F12232310509F067
:10159000C3C04115510509F443C04130510509F05C
:1015A000BBC082E390E0ECEEF1E0C9CF9927813037
:1015B0009105C1F0009759F0029709F0ADC0EFEA2C
:1015C000F2E0E4918E2F90E0EFEAF2E007C0E1E074
:1015D000F3E0E4918E2F90E0E1E0F3E0009709F46E
:1015E0009BC0ADCFEBECF2E0E4918E2F90E0EBEC02
:1015F000F2E0F4CF4115510571F04130510509F089
:101600008BC089E090E0EDE8F2E099CF82E190E0D4
:10161000EDE9F2E094CF89E090E0E4E7F2E08FCFEB
:1016200084E490E0EEE1F2E08ACF8091BD0188236E
:1016300009F466CF853009F463CF8091E80083FD1B
:101640005FCF8091E80082FD8ECF8091E80080FF1F
:1016500084CF9091F3008091F2002115310519F0AB
:101660008830910550F041E0089709F040E0809102
:10167000E8008E778093E80070CF44914093F100AA
:101680003196215031090196E8CF803809F044C0E5
:101690008091E800877F8093E8008091BE0180936D
:1016A000F1009ECE811138C01091C1011230A0F519
:1016B0008091E800877F8093E8001093BE010E942C
:1016C0001102112311F084E005C08091E30087FD31
:1016D000FACF81E08093BD0142E061EC81E00E949D
:1016E000300242E261EC82E00E9430028091BD0152
:1016F00013C08091C101813079F481E0933009F009
:1017000080E08093BC011092E9008091E800877F1F
:101710008093E8000E9411028091E80083FF0AC0D4
:101720008091E800877F8093E8008091EB008062E1
:101730008093EB00AA96E3E00C94FA150E94D70878
:101740002FEF84E39CE0215080409040E1F700C0FF
:10175000000088E19AE00FB6F894A89580936000A5
:101760000FBE90936000FFCFB0E0A0E0EAEBFBE09B
:101770000C94D7158C01FC018481882341F121E070
:10178000408151816281738195810E940507EC013E
:10179000FC01E851FC47E730F105A8F5EF58F94E98
:1017A0000C94C91526E241EE61EEC8010E9454086E
:1017B00080917901877059F0F8018581882339F08B
:1017C00080918C0182FF03C082E00E94B606CDB7F3
:1017D000DEB7EAE00C94F31527E245EE65EEE5CFBF
:1017E00026E241EE60EEE1CF27E245EE64EEDDCF8A
:1017F00026E241EE62EED9CF27E245EE66EED5CF86
:1018000028E241E0EBCFF8018581882309F482C307
:1018100010920702CE019057839708F065C384E0C9
:1018200090E00E940E1690938C0180938B01FE0134
:10183000E150F047E232F10520F4E858F94E0C94FB
:10184000C91580918B01816080938B0195C0809137
:101850008C01886080938C018FC080918B018260A5
:10186000F3CF80918B018460EFCF80918B018860F2
:10187000EBCF80918C018160EDCF80918C018260F3
:10188000E9CF80918B018061DFCF80918B018062F5
:10189000DBCF80918B018064D7CF0E94D7088091E5
:1018A0008B018068D1CF80918B018C60CDCF8091EE
:1018B0008C018360CFCF80918B018E7FC5CF8091CB
:1018C0008C01877FC7CF80918B018D7FBDCF8091A9
:1018D0008B018B7FB9CF80918B01877FB5CF8091B2
:1018E0008C018E7FB7CF80918C018D7FB3CF80919B
:1018F0008B018F7EA9CF80918B018F7DA5CF8091A9
:101900008B018F7BA1CF0E94D70880918B018F77AD
:101910009BCF80918B01837F97CF80918C018C7FAF
:1019200099CF80918B0182FB992790F921E0922732
:1019300090FB82F990FB83F987CF80918C01982FDF
:10194000909591708E7F892B90FB81F983CF909138
:101950008B01892F8F7B96FF806476CF0E94D708FA
:1019600090918B01892F97FB87F980586DCF61E0AB
:101970008EE090E00E94241660918B0170918C01A2
:1019800084E090E00E9442160E94D70811CF60E0E8
:10199000EFCF90918B01892F8F7E94FF806154CF80
:1019A00090918B01892F8E7F90FF81604DCF909118
:1019B0008C01892F877F93FF88604CCF85E3B3C26A
:1019C0000E94D708FFEF24E33CE0F1502040304074
:1019D000E1F700C0000087E797E790930108809344
:1019E000000888E19AE00FB6F894A895809360000B
:1019F0000FBE90936000FFCF6FEF7FEF90E080E02D
:101A00000E9442160E949E0B80918C0182FB8827C7
:101A100080F991E089270E94C008F8018581C08182
:101A2000D181882309F44DC0CE010E94F505F82E1E
:101A3000682FCE010E946906BE018F2D0E94A70467
:101A40000E94C604D82FC92FA82EF801C580B680E1
:101A5000B2943FE0B32280917901877009F1EC2CB8
:101A6000CC20F9F0892F807F803469F080E28D0FDF
:101A70008830B0F0892F807E803229F4F1E0FD17A4
:101A800078F4BB2069F080918C0182FF09C082E06C
:101A90000E94B606809179018770EE24E39481114B
:101AA000E12CDC2ED2942FE0D2222BE02D1508F46D
:101AB0006DC0ED2DF0E0E656F94E0C94C91580E0AE
:101AC000AACFCE010E943606F82EB6CF3C2F3F702B
:101AD000F32EC07F19F0F29490EFF922CC20B9F0E8
:101AE000FF2069F080E28D0F883010F0A11009C04E
:101AF00080918401F82AF09284010E9480078D2F42
:101B000043C080917B01F82AF0927B01F6CF8D2FA4
:101B10000E94CC07FF20D1F1D05ED83010F0A11088
:101B200004C08F2D0E94E40506C0F09480917B01D3
:101B3000F822F0927B010E94800728C08C2F8F70C2
:101B4000F82EC07FC03219F0F29480EFF822AA205C
:101B500059F091E0A91609F479C0CC2009F485C0A8
:101B6000BB2009F447C0CBCF80918C0182FD3EC0E1
:101B7000CC20B1F1FF2039F080918401F82AF09255
:101B800084010E94800780E00E9401082D2D2850CA
:101B9000330B2430310510F40E949003EE20A9F09D
:101BA0008091790180FD11C0F80115828695869596
:101BB00086950E94CD06C8010E94B40B80917901E0
:101BC0008695869586950E94A40620E0F8014081BE
:101BD000518162817381848195810E940507F7CDCF
:101BE00080E00E94CC07FF2089F29BCFCC20A1F09F
:101BF000B11004C08F2D0E94C207C8CFE1E0BE1211
:101C0000C5CF80917A019F2D9823F91609F4BECF94
:101C1000F82AF0927A01BACFB110B8CF8F2D0E9476
:101C2000BB0790917A018F2D892329F08F2D809504
:101C3000892380937A0180915D019F2D982309F477
:101C4000A5CFF094F822F0925D01A0CFCC2029F02E
:101C5000F5E0FB1508F49ACFCDCF24E02B1508F45E
:101C600095CF8F2D0E94BB0791CFBB20D1F339E3D5
:101C7000A31209C08FEF97EEE3E081509040E0405F
:101C8000E1F700C000008D2F0E94CC077FCF8C2F82
:101C900086958695837069F0813009F077CF8D2F16
:101CA0009C2F9370C11002C080E090E00E94460318
:101CB0006DCF8D2F9C2F9370C11002C080E090E0FB
:101CC0000E946B0363CF8C2F837009F03FC0C1105B
:101CD0005DCF4D2F429546954770440F440F2D2FF1
:101CE0002F7030E0042E02C0220F331F0A94E2F757
:101CF00090E080E0D4FF09C08FE090E002C0880F40
:101D0000991F4A95E2F780959095C695C695C37040
:101D1000C23099F078F44091870150918801C13028
:101D200039F0822B932B842395230E94DD062ECF3E
:101D3000242B352B822B932BF8CF822B932B2091A6
:101D400087013091880182279327EFCF8695CC2099
:101D500011F08C2F8170882309F418CF4D2F4295F4
:101D600046954770440F440F2D2F2F7030E0042EFE
:101D700002C0220F331F0A94E2F790E080E0D4FF04
:101D800009C08FE090E002C0880F991F4A95E2F7E2
:101D900080959095C695C695C370C23099F078F439
:101DA0004091890150918A01C13039F0822B932BE7
:101DB000842395230E949F06E9CE242B352B822B6A
:101DC000932BF8CF822B932B2091890130918A019C
:101DD00082279327EFCFCF70CC2029F08C2F0E9441
:101DE000CD068D2F08CF8D2F0E94BB078C2F0E9410
:101DF000A406CCCE8D2FF2EFAF1699F1FA1570F044
:101E000020EFA216D1F031EFA31691F0CC2009F407
:101E10005BC0B11074CE8C2F8F7127C093EFA916C1
:101E200039F1E4EFAE12F2CF80918C0182FD2EC029
:101E30008C2F8F71CC20D9F218C0CC2069F0F4E03F
:101E4000FB1508F4A3CECF7181E090E002C0880FAB
:101E5000991FCA95E2F7B8CF25E02B1508F496CE66
:101E6000F2CF8C2F8F71C110C2CF0E94CD068ECEC3
:101E700090E080E0CC2009F49DCFCF7181E090E02C
:101E800002C0880F991FCA95E2F794CFCC2089F041
:101E9000CF718C2F0E94CD0680918C0182FF07C0EC
:101EA00038E0C39FC00111248360809379018C2F97
:101EB000DCCF81E00E94B60681E08B1508F066CE8B
:101EC00082E00E94B60662CEBB2059F0893309F049
:101ED000DACE9FEFE7EEF3E09150E040F040E1F71B
:101EE000D0CE8C2F8F7183CFC631FCE7DF0749F549
:101EF000809184018A7A91E009F490E090935C01EA
:101F000069E2811165E384E591E00E942C030E945F
:101F100080074ECCC631DC4709F07FCD80915C0153
:101F200081114CCD89E2E6E5F1E02CE531E09191BB
:101F3000891303C0DF0111971C922E173F07B9F7D1
:101F4000E6CFC3303CE7D30709F456CD50F4C115B2
:101F50009CE7D90709F434CDC130DC4709F452CDF0
:101F60005CCDCB35FCE7DF0709F4A9CDCC352CE7F8
:101F7000D20709F449CDCA35DC4709F04ECD81E0DE
:101F80004ACDCF93DF9380917801807F09F04DC0D7
:101F900080917701882309F448C0E09100025091B4
:101FA000C701C0917301D091720160917401709169
:101FB000750147E05E17C9F18E2F90E0E49FF001B4
:101FC0001124E853FE4F2481222391F1489FF00110
:101FD000499FF00D1124DF01A853BE4F11962C919B
:101FE00011972C1325C02C912D1322C015962C91DE
:101FF000159721111DC012962D913C91261B370B70
:10200000283C3105A8F4809178018F70806180931D
:102010007801E253FE4F80818F708061808382E778
:1020200091E00E94B40B0E94EB05DF91CF910895DF
:10203000FC013196E770BECFA4E1B0E0E2E2F0E14E
:102040000C94D5158C0186E0F801DE011F960190F5
:102050000D928A95E1F7F8018481E58092E7A92E37
:1020600091E0B92E90917601911128C0882319F141
:10207000EE20F1F0C8010E94E206F82E8823C1F09C
:1020800087E0F801D50101900D928A95E1F78091E2
:102090007601813031F480917201909173010E9438
:1020A00029060E94C10F8F2D6496ECE00C94F11567
:1020B000C8010E94B40BFF24F394F5CFD080C180F7
:1020C00082809380F09077012091740130917501A6
:1020D000A401421B530BFF2009F4D9C0483C510511
:1020E00008F092C08823F9F29091730180917801F1
:1020F000282F207F09F056C0C91214C09091720198
:10210000D91210C0E11048C08F70806180937801AF
:1021100082E791E00E94B40B80917801F8018683F8
:10212000F12CC1CFE11038C06C2D8D2D0E94A20181
:102130006C2D8D2D0E94A201E82E8111F1CFDF863A
:10214000C88A8F8598890E942906292F22952F7089
:10215000243058F49F70223088F0992399F0F801C8
:102160009681907F79F4FE2C9ECF2A5F2F702230CB
:1021700068F0C8010E94B40BEF2CF5CF992311F041
:10218000882389F3805E883070F3F3CF803F58F363
:10219000815F833070F7E7CF809178018160809311
:1021A0007801BECFC91207C090917201D91203C045
:1021B000EE2009F48DC0C8010E94E206882309F4CC
:1021C00077CFEE2009F474CF80917801803288F0C7
:1021D0002091720130917301398728879B868A8606
:1021E000909176019C871D868E87CE0108960E946D
:1021F000B40B87E0F801A2E7B1E001900D928A9557
:10220000E1F70E94C10F57CF90917801292F207FCD
:1022100051F482E791E00E94B40B87E0F50111923E
:102220008A95E9F77DCF882309F43DCF809173012A
:102230008C1110C080917201D8120CC0E1100AC03C
:102240009683C8010E94B40B87E0F50111928A952C
:10225000E9F729CFC8010E94E206882309F428CFB4
:10226000EE2009F425CF80917801803210F2209180
:102270007201309173013A8329839C828B82909101
:1022800076019D831E828F83CE010196B0CF483C9C
:102290005105D0F6882309F40ECFFE2CEE2009F468
:1022A00007CF809173018C1120C080917201D812E8
:1022B0001CC08091780180FD0FC0982F907F61F045
:1022C0008683903F31F0982F907F905F8F70892B9D
:1022D0008683C8010E94B40B87E0F801A2E7B1E051
:1022E00001900D928A95E1F7DECEC8010E94E206C8
:1022F00081117FCF80917801816080937801C8013E
:102300000E94B40BD0CEABE1B0E0E9E8F1E10C946F
:10231000DD154E8B5F8B688F798F8A8F9B8F192F7E
:10232000911110927B011D8A86E0FE017696DE01F6
:102330001F9601900D928A95E1F70A8D002341F0D6
:1023400021E04F85588969897A89C8010E9405076B
:102350000B8B1C8B87E0FE013F96DE0118960190E7
:102360000D928A95E1F7CE0108960E941C1081110A
:102370002AC087E0FE013896DE01119601900D9289
:102380008A95E1F78C858823F1F02091C70130E030
:10239000C9010196877099274091000248171906D4
:1023A000E9F097E0929FD001939FB00D1124A853BC
:1023B000BE4FFE01319601900D929A95E1F7809300
:1023C000C7010E94EB0517E0809100029091C701C0
:1023D000891312C06B96E4E00C94F9150E94D7089B
:1023E0001092C7011092000287E0E2E7F1E0DF01FE
:1023F0001D928A95E9F7E7CF819FC0011124885388
:102400009E4F0E941C10882329F38091000290E0C7
:1024100001968770992780930002D6CFA6E0B0E09E
:10242000E4E1F2E10C94DD150E9420038C0180911F
:102430008501909186018017910781F019821A8297
:102440000E942003682F49815A81792F80E090E013
:102450000E94831110938601009385012696E4E083
:102460000C94F9151F920F920FB60F9211242F930F
:102470003F934F935F936F937F938F939F93AF930C
:10248000BF93CF93DF93EF93FF93D091E900DF7079
:102490008091EC00C82FC17080FDC0E81092E90067
:1024A0008091F000877F8093F00078940E94ED087F
:1024B0001092E9008091F00088608093F000CD2BAD
:1024C000CF70C093E900FF91EF91DF91CF91BF9161
:1024D000AF919F918F917F916F915F914F913F91BC
:1024E0002F910F900FBE0F901F9018951F920F9273
:1024F0000FB60F9211242F933F934F935F936F93D7
:102500007F938F939F93AF93BF93EF93FF938091AC
:10251000E10082FF09C08091E20082FF05C0809146
:10252000E1008B7F8093E1008091DA0080FF24C07E
:102530008091D80080FF20C08091DA008E7F809348
:10254000DA008091D90080FFA1C080E189BD82E1DD
:1025500089BD09B400FEFDCF81E08093BD0180916B
:10256000B001811109C00E94C1010E9462028091E4
:10257000E20084608093E2008091E10080FF17C058
:102580008091E20080FF13C08091E2008E7F8093F3
:10259000E2008091E20080618093E2008091D800A7
:1025A00080628093D80019BC85E08093BD01809142
:1025B000E10084FF2FC08091E20084FF2BC080E106
:1025C00089BD82E189BD89B5982F917080FFFBCFCD
:1025D0008091D8008F7D8093D8008091E1008F7E1C
:1025E0008093E1008091E2008F7E8093E2008091F1
:1025F000E20081608093E2008091BE01882309F4AB
:102600004BC084E08093BD010E94D7080E949003D4
:102610008091BD018091E10083FF27C08091E2009D
:1026200083FF23C08091E100877F8093E10082E0F7
:102630008093BD011092BE018091E1008E7F809356
:10264000E1008091E2008E7F8093E2008091E200C1
:1026500080618093E20042E060E080E00E9430020E
:102660008091F00088608093F000FF91EF91BF911E
:10267000AF919F918F917F916F915F914F913F911A
:102680002F910F900FBE0F901F90189519BC1092AC
:10269000BD011092B00170CF8091E30087FD93E0FF
:1026A0009093BD01B1CF78941F921FB61F92112451
:1026B0008F939F93AF93BF938091010290910202F9
:1026C000A0910302B09104020196A11DB11D809357
:1026D000010290930202A0930302B0930402BF91FF
:1026E000AF919F918F911F901FBE1F9018951F92C1
:1026F0001FB61F9211248F939F93AF93BF93809126
:10270000010290910202A0910302B091040241964D
:10271000A11DB11D8093010290930202A0930302B8
:10272000B0930402BF91AF919F918F911F901FBEF4
:102730001F901895CDB7DEB72E970FB6F894DEBF71
:102740000FBECDBF85B7806885BF85B7806885BF60
:1027500084B7877F84BF0FB6F894A89580916000F6
:10276000886180936000109260000FBE80E890E066
:102770000FB6F89480936100909361000FBE8DE9CD
:1027800093E090935301809352010E94C1010E94F3
:1027900062028091E20084608093E20078948091EC
:1027A000BD018823A1F01091E9001F709091EC0009
:1027B000892F817090FD80E8182B1092E90080919C
:1027C000E80083FD0E94ED081F701093E90082E08D
:1027D00084BD93E095BD9AEF97BD80936E0085EF21
:1027E0000E949F0386EF0E949F0387EF0E949F0332
:1027F00081E30E949F0362E5862E61E0962E08E445
:1028000011E0D8018D918D018F3F11F00E949F033F
:1028100080169106B1F788E0E8E9F1E0DF01282FA2
:102820001D922A95E9F7E0E9F1E0DF011D928A9512
:10283000E9F790E080E00E940E168E010F5F1F4FB7
:10284000863E9E4F09F465C066EE7EEF90E080E024
:102850000E94421660E082E090E00E94241681E02F
:1028600090E0909388018093870161E083E090E09D
:102870000E94241660E074E184E090E00E94421619
:1028800060E086E090E00E94241660E087E090E03F
:102890000E94241640E050E0BA0188E090E00E94D7
:1028A000361660E084E290E00E94241660E087E142
:1028B00090E00E94241660E08CE090E00E942416D4
:1028C00060E08DE090E00E94241619821A821B823B
:1028D0001C821D821E821F82188648E050E068E13B
:1028E00070E0C8010E94141640E050E0BA0180E296
:1028F00090E00E94361640E050E0BA018FE090E090
:102900000E94361640E050E0BA0183E190E00E9458
:10291000361682E090E00E9406168093A00184E0C3
:1029200090E00E940E1690938C0180938B0183E0BF
:1029300090E00E94061690E00E94DD0680E091E0A3
:102940009093AD018093AC01F80128E011922A9593
:10295000E9F754E4E52E51E0F52E6801D7018D9199
:102960007D018F3F09F446C0F894E82FE295EF709F
:10297000F0E021A18F7041E050E002C0440F551FEC
:102980008A95E2F7CA01922F982B91A392A1809584
:10299000892382A3789400C0E8E4F1E021E030E0EC
:1029A000B12CA12C41914F3F09F4A6C0A42FA295B0
:1029B000AF70B0E090968C9190E04F7002C095950A
:1029C00087954A95E2F780FD97C0C901A82AB92AE0
:1029D000220F331F8E169F0629F7F701319780814A
:1029E0008F3F11F00E949F0350EA5A95F1F7D601EC
:1029F000AD92BC92B2E0CB0ED11CE8E4F1E0EE1552
:102A0000FF0509F0ABCF48E050E0B80180E991E064
:102A10000E945816892B09F48DC088E0F801A0E9BE
:102A2000B1E001900D928A95E1F7F1E0F0938F010A
:102A30000E94200390938E0180938D0121EAA22EA3
:102A400021E0B22E38E9432E31E0532ED201F501B8
:102A5000219131918D919D9141E0E93AF40709F47A
:102A60004EC028173907A1F3312CD201ED90FD900B
:102A70002D01F501619071905F016E147F0461F189
:102A8000212CCC24C394D12C6E247F24C3018C210F
:102A90009D21892BB9F029863A860E9420039C87C4
:102AA0008B87F1E0FD8791E096012E213F21232BBA
:102AB00009F490E09E8749855A856B857C858D85D4
:102AC0000E9483112394CC0CDD1C2AE02212DECF5D
:102AD000F5013297F182E082339444E03412C5CF9D
:102AE0008FB7F89440910102509102026091030265
:102AF000709104028FBF09C090E080E067CF281773
:102B0000390709F0B1CF0E940E120E9490039091F4
:102B1000A901891709F418CF8093A9018FB7F894F8
:102B200040910102509102026091030270910402EF
:102B30008FBF0ACF80918F01882309F47FCF209126
:102B40008D0130918E014FB7F894809101029091E0
:102B50000202A0910302B09104024FBF821B930BAB
:102B6000059708F46BCF48E050E060E971E088E930
:102B700091E00E945816892B49F088E0E0E9F1E0E5
:102B8000A8E9B1E001900D928A95E1F710928F01CA
:102B900055CFEE0FFF1F0590F491E02D09942F9271
:102BA0003F924F925F926F927F928F929F92AF92DD
:102BB000BF92CF92DF92EF92FF920F931F93CF932A
:102BC000DF93CDB7DEB7CA1BDB0B0FB6F894DEBFC1
:102BD0000FBECDBF09942A88398848885F846E84E7
:102BE0007D848C849B84AA84B984C884DF80EE8031
:102BF000FD800C811B81AA81B981CE0FD11D0FB63A
:102C0000F894DEBF0FBECDBFED010895F999FECF58
:102C100092BD81BDF89A992780B50895A8E1B0E0EA
:102C200042E050E00C944A16DC01A40FB51F41505D
:102C3000504048F0CB01840F951F2E910E9425161D
:102C400041505040D0F70895262FF999FECF92BDFC
:102C500081BDF89A019700B4021639F01FBA20BD61
:102C60000FB6F894FA9AF99A0FBE08950396272F93
:102C70000E9425160E942416252F0E942516242F17
:102C80000C9425160196272F0E9425160C942416C5
:102C9000DC01CB01FC01F999FECF06C0F2BDE1BD1C
:102CA000F89A319600B40D9241505040B8F708950B
:102CB000FB01DC0104C08D910190801921F4415089
:102CC0005040C8F7881B990B0895F894FFCFCC09A2
:102CD000F4098C0BF4098C0B270A480A8C0B450B62
:102CE000520BF00BF40BD20BEC0BF80BFC0B000CA3
:102CF0005B0CD00C630C2D0C310C670C350C6B0C81
:102D0000770C410CC90C450C7B0C490C7F0CA70CB3
:102D10004D0C830CAE0C530C890C910C390C6F0CC0
:102D20003D0C730C570C8D0C9D0CB70CC70C270C6D
:102D30005F0CD70C660D660D9E0D9E0D470EC60DE1
:0C2D4000C60DC60D630EEB0EFA0EFA0E67
:102D4C001D036C071B031C03650701818283E200D2
:102D5C00E900EA00B500B600B700CD008301CC0055
:102D6C008A019201940121022302240225022602E7
:102D7C0027022A02B300B4006F0070009F01CB0140
:102D8C009F02A002F5F6F73133329190946697C604
:022D9C003435CC
:00000001FF
